:100000000C942A000C943F000C943F000C943F0089
:100010000C943F000C943F000C943F000C943F0064
:100020000C943F000C943F000C943F000C943F0054
:100030000C943F000C943F000C943F000C943F0044
:100040000C943F000C943F000C943F000C943F0034
:100050000C943F0011241FBECFE5D8E0DEBFCDBF1A
:1000600010E0A0E6B0E0E8EBF1E002C005900D92F0
:10007000A437B107D9F70E9441000C94DA000C9420
:100080000000CF93DF93CDB7DEB764970FB6F89437
:10009000DEBF0FBECDBF84E1E0E6F0E0DE011196E9
:1000A00001900D928A95E1F78FEF84BB8ABB87BBE5
:1000B00081BB80E28BBB18BA12BA80E090E015C019
:1000C000FC01EE0FFF1F21E030E02C0F3D1FE20F7F
:1000D000F31F208125BB3FEF49E628E13150404026
:1000E0002040E1F700C0000001968A30910540F3FE
:1000F0001BBA18BA80E282BB86E090E015C0FC0112
:10010000EE0FFF1F21E030E02C0F3D1FE20FF31F29
:10011000208125BB3FEF49E628E131504040204097
:10012000E1F700C0000001968A30910540F31BBA48
:1001300080E288BB12BA80E090E015C0FC01EE0FAF
:10014000FF1F21E030E02C0F3D1FE20FF31F208145
:1001500025BB3FEF49E628E1315040402040E1F720
:1001600000C0000001968A30910540F31BBA18BA0E
:1001700080E282BB86E090E015C0FC01EE0FFF1F1D
:1001800021E030E02C0F3D1FE20FF31F208125BB43
:100190003FEF49E628E1315040402040E1F700C000
:1001A000000001968A30910540F380E28BBB18BABB
:0801B00012BA83CFF894FFCFCF
:1001B80090008000F800820092009900B000A4002E
:0401C800F900C0007A
:00000001FF
